S01D0000776966695F687474705F6F7461665F7477745F736F632E7333379E
S31500000000010000000D900D901CC1020001000000CF
S3150000001000102000E5CFD17A0000000000000000AB
S3150000002000000000000000000000000000000000CA
S315000000300000000000000000000000000D900D9080
S31500000040A55A0000002020080000008000000000E3
S31500000050000000000000000000000000000000009A
S31500000060000000000000000000000000000000008A
S31500000070000000000000000000000000000000007A
S31500000080000000000000000000000000000000006A
S31500001000883102002D252008E1242008E12420084B
S31500001010E1242008E1242008E12420080000000043
S31500001020000000000000000000000000B10C2108D4
S31500001030E124200800000000010D21088701210895
S31500001040E1242008E1242008E1242008E1242008E6
S31500001050E1242008E1242008E1242008E1242008D6
S31500001060E1242008E1242008452D20080950200805
S31500001070ED2F20083D8A2008E1242008E1242008DD
S31500001080E1242008E1242008C57E2008697F200885
S31500001090E12420085D7E2008E1242008E1242008C0
S315000010A0E1242008E1242008E1242008E124200886
S315000010B0E1242008E124200888310200ED8320087D
S315000010C02D2520089D2C2008E1242008E124200855
S315000010D0E1242008E1242008D52F2008E12F20084C
S315000010E05D242008E1242008258A2008B3DE6E59F5
S315000010F0E1242008E1242008E1242008E124200836
S31500001100E1242008E12420082D7E2008457E2008C1
S315000011106D7D2008857D20089D7D2008B57D2008F1
S31500001120CD7D2008E57D2008FD7D2008157E200860
S31500001130E1242008318A2008E1242008E12420083F
S31500001140E1242008E1242008E1242008E1242008E5
S31500001150E1242008E1242008E1242008E1242008D5
S31500001160E1242008E12420083D9820080000000022
S315000011700000000000000000000000000000000069
S315000011800348044B834202D0034B03B11847704710
S31500001190280C0100280C0100000000000548064B41
S315000011A01B1AD90F01EBA301491002D0034B03B15F
S315000011B018477047280C0100280C010000000000A9
S315000011C010B5064C237843B9FFF7DAFF044B13B189
S315000011D00448AFF300800123237010BD280C0100E2
S315000011E000000000A4BD210808B5054B1BB1054948
S315000011F00548AFF30080BDE80840FFF7CFBF00BF4A
S31500001200000000002C0C0100A4BD21087FB5038955
S315000012100493837903934379029303790193C37803
S315000012200093837842780178024814F0B9FA07B03F
S315000012305DF804FB508B21080FB404B07047000022
S3150000124030B5114B93F85830013BDBB2FD2B8FB014
S3150000125018D80E4D0FCD6C460FC40FCD0FC40FCD51
S315000012600FC495E8030084E80300094C6846D4F8E7
S31500001270443719F097FD04F02BF9D4F844370020D1
S315000012800FB030BD0120FBE700021F0858021F08FF
S3150000129000800524134B0168D3F84437F0B50127C5
S315000012A0013900D2F0BDD0F808C04668CCF38455A9
S315000012B0C5EBDC62346801320023013A0CD203FA32
S315000012C005F203EA0C03C3F3150324EA0202AB405A
S315000012D0134333600830E3E707FA02FE43EA0E03DE
S315000012E0EBE700BF0080052408B51848FFF7D2FFDA
S315000012F01748FFF7CFFF04F075FB04F087FB04F0F7
S3150000130091FB04F0A3FB04F0ADFB1248FFF7C2FF0C
S315000013101148FFF7BFFF1148FFF7BCFF1048FFF762
S31500001320B9FF1048FFF7B6FF0F48FFF7B3FF0F48A6
S31500001330FFF7B0FF0E48FFF7ADFF0E48FFF7AAFF15
S31500001340BDE808400C48FFF7A5BF00BFD40B01005D
S31500001350380B010074070100400801003408010041
S31500001360540801001407010008070100FC060100EB
S3150000137050070100980701008C07010010B5254CA5
S31500001380FFF7B2FF94F8040600F00100FFF758FFDC
S315000013904FF4C023C4F86C34D4F840311E4843F4EB
S315000013A00023C4F84031D4F8403143F00103C4F8B7
S315000013B04031D4F8403143F00203C4F84031FFF71E
S315000013C069FF16491648D1F8103543F00203C1F8F3
S315000013D01035636923F400336361636943F4803332
S315000013E06361D0F84027D0F87837C2F34342023A17
S315000013F023F4F07343EA4213C0F87837D1F89434F3
S3150000140043F40023C1F89434236943F46013236141
S3150000141010BD00BF008004246009010000A005245F
S315000014200080052408B550B10748FFF733FF074889
S31500001430FFF730FF0648BDE80840FFF72BBF054819
S31500001440FFF728FF0448F6E7A8090100500A010043
S31500001450440A01001C0A0100C80901000B48D0F823
S3150000146000D05DF804EB5DF804CB5DF804BB5DF8D5
S3150000147004AB5DF8049B5DF8048B80BC40BC20BCCB
S3150000148010BC08BC04BC02BC01BC7047500C010077
S31500001490114AD2F8103623F48073C2F810360F4B77
S315000014A0596B41F001015963596B41F002015963CF
S315000014B00423C2F8383482B000238DF807309DF833
S315000014C00730092B01D902B0704700BF9DF80730DD
S315000014D00133DBB2F1E700BF00800424008404245A
S315000014E0FEE7FEE7054B064A06498B4200D37047E6
S315000014F052F8040B43F8040BF7E700BF0C0000009A
S31500001500C0BF2108280C0100064B0748DA1C121A36
S31500001510C11E22F00302994288BF0022002114F066
S315000015201EBA00BF88010200280C010008B5FFF7AB
S31500001530D9FFFFF7E9FF00F0C3F8BDE808400DF05A
S31500001540AEBD000070B562B63E4B3F4A1A603F4BD7
S315000015503F4A93F806363F4C3F4D03F00F030F2BDF
S3150000156015BF3E4B4FF00063D3F89312D3F83714F0
S315000015700CBF116011603A4A0CBFD3F83634D3F869
S315000015809232136004F024F92F4BE36307F018F945
S31500001590032004F0EDFB04F01DF9324BDB694FF03C
S315000015A08061D3F880304FF08C409847EB69022673
S315000015B066F30E33EB612C4BDA696FF30202DA61E4
S315000015C0304604F081F9214B0D22C3F828265A69CA
S315000015D042F001025A615A691A6A66F302021A62F5
S315000015E01A6A1207FCD5AB69022262F38403AB6167
S315000015F0AB691B04FCD51D4B1D4D5A6E6FF34102A2
S315000016005A665A6E6FF300025A66FFF741FF194990
S315000016100D4B21614FF4FA40E161174960620022E7
S3150000162020624FF40040C4E90033C4E90B15C4E955
S315000016300F33A2606261E360A06263636164A261CA
S3150000164070BD00BFA40C0100005A62020080042491
S315000016504C0C0100540C01000081042400001F08FA
S31500001660480C010000013000008604240084042494
S31500001670002D310100B4C4040048E8014FF0E02316
S3150000168084B0D3F8402F0192D3F8442F02920199E7
S31500001690094A91420DD10299084A914209D1D3F8DB
S315000016A0882D0392039A42F470020392039AC3F8B8
S315000016B0882D04B0704700BF2100111011000011E1
S315000016C013B50023009301932F4BD3F810250092F6
S315000016D0009A00922D4A116821F00F0111601168DD
S315000016E01160D3F89C1421F46071C3F89C14D3F8EC
S315000016F0041701910199C3F80415D3F80017019155
S315000017000199C3F80015D3F8101541F01C01C3F870
S315000017101015D2F8024014F48074FAD11C484369BB
S3150000172043F480334361436964F351434361FFF7F4
S31500001730A5FF184B4FF080725A60174BC0F8403126
S31500001740164B5A6864F3C3025A60036A0E4A43F49E
S3150000175080330362036A43F400330362D2F894349D
S3150000176043F40023C2F89434036943F4601303611D
S315000017700B4B1A6842F400221A601A6842F480225F
S315000017801A6002B010BD00BF00A0052400000524A9
S315000017900080042400003041030008000081042476
S315000017A00084042430B50E4D2B6885B043B90D4B2B
S315000017B00FCB6C4684E80F0020460DF08DFE2860A6
S315000017C00DF004FD022808D1286830B14FF0FF3132
S315000017D005B0BDE830400DF0BCBE05B030BD00BF61
S315000017E0F80C0100808B210808B50DF0EFFC0228EB
S315000017F006D1044B186818B1BDE808400DF0CEBEFE
S3150000180008BD00BFF80C010020F04040012802D0BE
S31500001810022805D07047034A1368013313607047E6
S31500001820014AF9E7000D0100FC0C010010B5124C4D
S31500001830E3689847A36811489847236902209847A8
S31500001840A46A01211520A04701211620A0474FF4C4
S31500001850E1310120A0470A4C206810B90DF03CFE8A
S315000018602060084B4FF48052C3F88020BFF34F8F9F
S31500001870BFF36F8F10BD00BF908B21080928200889
S31500001880040D010000E100E013B5094C00238DF8BA
S3150000189004302360074B01219B6901A89847236800
S315000018A01BB19DF8040002B010BD00F0A5FBF6E7E1
S315000018B0FC0C0100908B210813B5094C8DF807002C
S315000018C000232360074B01215B690DF10700984750
S315000018D023680BB102B010BD00F08EFBF8E700BF25
S315000018E0000D0100908B210803681B780022202B35
S315000018F004D0093B042B01D9D0B270470368591CA8
S3150000190001605B780132F2E70120704708B507F005
S3150000191089F9162303604FF0FF3008BD08B507F0BC
S3150000192081F916230360FEE770B50D4614460DF0E7
S315000019304DFC022805D10C4B4FF0FF3118680DF015
S3150000194008FE2E46731BA34209DB0DF03FFC02285E
S3150000195003D1054B18680DF021FE204670BD16F820
S31500001960010BFFF7A9FFEDE7040D01004FF0FF3073
S3150000197070474FF400534B600020704701207047BA
S31500001980002070470FB42DE9F0438BB012AB002452
S3150000199053F8046B019304AD8DF81040A846FFF789
S315000019A073FF0D2805F8010B04D00A2802D0013474
S315000019B0142CF4D19E4B019FE34004F1280213F04E
S315000019C001030DEB02041ABF002304F8183C04F8C7
S315000019D0173C9DF81030CDE90268002B00F04E81CF
S315000019E00025029B1B78002B4DD0DDF80C9099F852
S315000019F00060002E47D002A8FFF776FF044618B114
S31500001A0003A8FFF771FFECE7029A1346517813F823
S31500001A10010B0293252801D1252907D18E4232D107
S31500001A2009F10103023203930292DAE726462046C1
S31500001A30A0461A7806F07C01002A7CD100B10293F8
S31500001A4009B3002C08BF6324082900F087802029E9
S31500001A5000F0AA80042916D157F8042B49461444ED
S31500001A6000200E780B460131002E6AD100286FD176
S31500001A70B7E7692A50D01ED8632A52D011D8392A1E
S31500001A8007D82F2A34D8E8B20BB0BDE8F04304B02B
S31500001A907047582AF7D146F0200601334FF0100858
S31500001AA032E0642AEFD146F4005646F020060133B0
S31500001AB04FF00A0828E06F3AD1B20929E3D8092A7B
S31500001AC0E1D801A151F822F00D2B2008872A200821
S31500001AD0872A2008872A2008312B2008872A2008F1
S31500001AE0AB2A2008872A2008872A2008972A200858
S31500001AF0002CC8D10A211A78303A01FB042413F8C5
S31500001B00012F303A092AF6D9012092E746F020063D
S31500001B1001334FF00808F7E746F020060133884600
S31500001B20F2E7012C46F0040638BF01240133EBE747
S31500001B3046F00806FAE700299BD0002881D00293D8
S31500001B407FE702F8016BA2424FF0010089D10B46F4
S31500001B50994503933FF445AF013542E703A8FFF7E4
S31500001B60C3FE039E57F8043B314603EB040C0020EA
S31500001B700C4611F8012B12B960B103940AE00D2A44
S31500001B800FD8082AF8D803F8012B63454FF0010057
S31500001B90EED10391039A96423FF423AF00221A70C6
S31500001BA0DAE7202AEFD1E7E703A8FFF79DFE039BBC
S31500001BB0B8F1000F10D0B8F1100F17D11A78302AEB
S31500001BC014D15A7802F0DF02582A0FD10233039358
S31500001BD0023C4FF0100809E01A78302A16D15A78DC
S31500001BE002F0DF02582AF1D04FF00808039B1A785A
S31500001BF02B2A0ED02D2A0FD101330393013C4FF02F
S31500001C00FF31039A00201444844616E04FF00A0878
S31500001C10ECE701330393013C0121F2E7A9F141030B
S31500001C20052B02D920B3039222E0A9F1370317E06E
S31500001C30010010000CFB083C012092F8009096462B
S31500001C40B9F1000FEED0A242ECD0A9F13003DBB21D
S31500001C50092B06D9A9F16103052BDFD8A9F1570392
S31500001C60DBB2984502F10102E4D808B1CDF80CE0E8
S31500001C7057F8043B0CFB01F119606DE74FF0FF3597
S31500001C8001E700BF044802231421C21801334B2B7D
S31500001C9082F80013F9D1704700E100E038B5234B14
S31500001CA00222C3F88420BFF34F8FBFF36F8F204B00
S31500001CB0D3F80028D30735D401231946202B01D1A8
S31500001CC01C4606E001FA03F4144203F1010027D092
S31500001CD0DCB2184B03EB04139A68C2F38162032A41
S31500001CE022D09B689B0F032B1ED0134B142202FBA2
S31500001CF00433D3E90253ED1A18BF01250F4B0E4AE0
S31500001D00DB680C49DB690E4898472DB1084A012368
S31500001D105169A3400B435361044B02225A6038BDFC
S31500001D200346CBE70024D4E70025E7E700E100E01F
S31500001D300000034400FC0200F80D01000001300021
S31500001D401800000038B5244B4FF48062C3F8802099
S31500001D50BFF34F8FBFF36F8F204BD3F80028D30705
S31500001D6036D4012319460C2B01D11C4606E001FA94
S31500001D7003F4144203F1010028D0DCB2184B03EB44
S31500001D8004139A68C2F38162032A23D09B689B0FCF
S31500001D90032B1FD0134B142202FB0433D3E9025347
S31500001DA0ED1A18BF0125104B0E4ADB680C49DB699A
S31500001DB00E4898472DB1094A01235169A3400B43A8
S31500001DC05361054B4FF480621A6038BD0346CAE77B
S31500001DD00024D3E70025E6E700E100E000800724C1
S31500001DE0001C0624080D0100000130000C00000054
S31500001DF0064B1868002382B262F30F03000C60F3EF
S31500001E001F4382B0184602B0704700BF048C2108F9
S31500001E10014B1868704700BF24000000014803F01A
S31500001E2067B900BF24000000014903F021B900BFD3
S31500001E3024000000014803F0F9B800BF24000000A8
S31500001E4037B504460B200D4600F0D2FA064B1B6848
S31500001E500193064B00930246054B2946204602F0A5
S31500001E609BFE03B030BD00BFF01001000C00000067
S31500001E7024000000014802F08BBE00BF24000000D1
S31500001E80014802F082BE00BF240000007FB5104B5F
S31500001E90D3E90354B2F5806F2E883ABF02F1FF33BF
S31500001EA0C3F3090340F2FF3363F30D162E80258832
S31500001EB063F30D15074B25801B680293064B0193B0
S31500001EC0064B0093024B02F027FE04B070BD00BF24
S31500001ED024000000F0100100080D01000C000000B5
S31500001EE00D4B1A69B1F5806F13B538BF01F1FF3399
S31500001EF0148834BFC3F3090340F2FF3363F30D14B0
S31500001F00064B14801B680193054B0093024A054B50
S31500001F1002F07CFD02B010BD24000000F0100100AC
S31500001F20080D01000C0000000D4BDA68B1F5806F5A
S31500001F3013B538BF01F1FF33148834BFC3F3090367
S31500001F4040F2FF3363F30D14064B14801B680193B4
S31500001F50054B0093024A054B02F0C2FC02B010BDCD
S31500001F6024000000F0100100080D01000C00000024
S31500001F70024B034A1B68034902F0FEBBF010010046
S31500001F800C00000024000000034B044904484FF4F1
S31500001F9000129A6402F090BB008404240C00000036
S31500001FA02400000007B5064B0193064B0093064A32
S31500001FB0064B074902F0F4FA03B05DF804FB00BFD4
S31500001FC078100100F01001000C000000001C06242F
S31500001FD024000000014802F0BBB900BFAC000000BD
S31500001FE0014802F0B5B900BF68000000014802F0E0
S31500001FF0AFB900BF24000000FFF7F8BF7047704775
S315000020007FB50126427803788DF80C208DF80D30C7
S315000020108DF80E60044603988DF808208DF8093077
S3150000202005F080F8284D286070B96378052B0DD12E
S315000020302178264B264A43F82140207904F01EFEDB
S31500002040A378244A0121D15404B070BD042B1FD1BA
S31500002050304604F0D8FD034628600028F4D11E4A15
S31500002060114652F8040B68B95BB2D8B2002341F8A6
S31500002070204000932279194B1949415C02A804F0CB
S31500002080BDFFDDE70133082BEBD14FF0FF33ECE763
S3150000209004F0B9FD034628600028D5D1114A104640
S315000020A052F8041B49B95BB2D9B2002340F821406B
S315000020B0009322790C4B0D48DFE70133082BEFD153
S315000020C04FF0FF33F0E700BFDC110100841101007F
S315000020D08D312008D8110100981101007D312008AA
S315000020E0F0000000B81101006D312008F800000072
S315000020F010B5044629B1042912D0BDE8104006F0F7
S3150000210097B84B2804D90D4840F2DB1105F0FAFCCC
S31500002110240104F18C4404F598146068C0B210BD23
S315000021200B2804D905484FF4EF7105F0EBFC2401A8
S3150000213004F1105404F59824EFE700BF088C210839
S3150000214010B5044641780078FFF7D2FFA378064A17
S31500002150D35C40B2984218BF0121207808BF002105
S3150000216010F024FB10BD00BFD8110100024B53F83C
S315000021702000FFF7E5BF00BFB8110100024B53F87E
S315000021802000FFF7DDBF00BF98110100024B53F896
S315000021902000FFF7D5BF00BF8411010013B5837877
S315000021A004468BB9012004F02EFD63788DF80430C7
S315000021B023788DF8053000238DF80630019802B09B
S315000021C0BDE8104004F0AEBF0020ECE7354BDFED74
S315000021D0366AD3F8102242F04002C3F8102207EE06
S315000021E0900AD3F81022F4EEE67A42F01002F1EEED
S315000021F010FA07EE101A82B0C3F8102206DCF0EED1
S31500002200086AB4EEE67AF1EE10FA08D5D3F8102291
S3150000221042F02002C3F81022002002B070479FED62
S31500002220237AF4EEC77AF1EE10FA10D5D3F810221D
S315000022306FF30302C3F81022D3F810226FF386124D
S31500002240C3F81022D3F810226FF30412E2E777EEF8
S31500002250C77ADFED176A134A87EEA67AF7EE007A99
S3150000226077EE277AFCEEE77ACDED017A9DF8043019
S31500002270F6EE007A77EE277A07EE103AB8EE477A4E
S31500002280B4EEE77AF1EE10FAC2BFFCEEE77ACDEDD6
S31500002290017A9DF80430D2F8101263F30301C2F8F4
S315000022A01012B9E70038042433333340CDCCCC3F89
S315000022B00AD7A33D0A4B9A6C013A052A0ED8DFE8E5
S315000022C002F003050705090B586C7047D86A70477A
S315000022D0D86B7047186B7047586B70470020704773
S315000022E0540C010006281DD8DFE800F0040A0D1082
S315000022F0131619000C4B586809B1B0FBF1F0704782
S31500002300094B186AF8E7084B586AF5E7064B986ACE
S31500002310F2E7054BD86AEFE7034B186BECE7024B85
S31500002320D868E9E70020E7E7540C010010B5032858
S3150000233014D8DFE800F0020A0D100F48C06A7AB11F
S31500002340A3B981B1B0FBF1F00DE00B48C069F6E727
S3150000235009484069F3E708488068F0E70020EEE79F
S3150000236023B909B9400810BD4900EBE7CB07FAD5F8
S315000023700229F8D9E6E700BF540C0100F8B50C466F
S315000023801546042828D8DFE800F003211B1E240088
S31500002390FFF790FF15B394B112F028F806462046D1
S315000023A00F4612F023F8104B002211F0E3FE02460E
S315000023B00B463046394612F0BDF912F053FBF8BD14
S315000023C00A4BD869E6E7094B5869E3E7074B986873
S315000023D0E0E7064BD868DDE70020DBE7002CEED00F
S315000023E0B0FBF4F0EBE700BF0000E03F540C010047
S315000023F010B50E2800F28F81DFE810F00F001E00E6
S315000024002D005300720084009600B300CA00DD0060
S31500002410E70009013201600182014FF08C43BDE8FB
S315000024201040D869D969DA69C1F3C301C2F34072B1
S3150000243000F00700FFF7A2BF4FF08C43BDE8104045
S31500002440D869D969DA69C1F38321C2F38072C0F30E
S31500002450C210FFF793BF4FF08C4293699469C3F3A0
S31500002460C233C4F3C324052B19D8DFE803F00309EC
S315000024700C0F1215FFF71EFF0CB1B0FBF4F010BDE8
S315000024808C4B9868F8E78B4B1869F5E7894B5869C8
S31500002490F2E7884BD869EFE7864BD868ECE700206F
S315000024A0EAE74FF08C42936A946AC3F34243C4F35B
S315000024B00554032B12D8DFE803F002080B0EFFF7D2
S315000024C0F9FE002CDBD06400D7E77A4B5869F8E7B1
S315000024D0784B9868F5E7774BD868F2E70020F0E785
S315000024E04FF08C43BDE81040986999699A69DB6999
S315000024F0C2F34022C3F30073C1F3C50100F0070025
S31500002500FFF714BF4FF08C43BDE81040D86F9969B0
S315000025109A69DB69C2F34022C3F30073C1F3C501B4
S31500002520C0F34220FFF702BF4FF08C439B69C3F311
S315000025300263042B00F2EF80DFE803F003060A0DC6
S3150000254010005C4BD8689AE7BDE81040FFF7B2BEB2
S31500002550584B986893E7574BD86990E7554B58699D
S315000025608DE74FF08C4291699369926911F4802F3F
S315000025705049C2F3C0520CBF48698868C3F3C343CD
S315000025801AB1002B3FF47BAF12E083B9400876E71F
S315000025904FF08C439A6A9B6A12F4806F454A0CBFCF
S315000025A09069D068C3F3C523002B3FF468AF5B0086
S315000025B0B0FBF3F063E7404B98699969BDE81040BA
S315000025C0C1F34641000FFFF78DBE3B4BDA69DB696D
S315000025D0C2F34302C3F34713052A16D8DFE802F015
S315000025E00306090C0F12334A5068DDE7314A106AB8
S315000025F0DAE7304A506AD7E72E4A906AD4E72D4A7E
S31500002600D06AD1E72B4A106BCEE70020CCE72A4BE5
S315000026101A6A1B6AC2F34302C3F34213072A1DD880
S31500002620DFE802F004070A0D10131619214A506854
S31500002630A7E7204A106AA4E71E4A506AA1E71D4A86
S31500002640906A9EE71B4AD06A9BE71A4A106B98E786
S31500002650184AD06895E7174A506B92E7002090E732
S31500002660154B1B6BC3F34303062B54D801A252F838
S3150000267023F000BF91362008973620089D362008A3
S31500002680A3362008A9362008AF362008433520088F
S31500002690084B5868F3E6074B186AF0E6054B586A8C
S315000026A0EDE6044B986AEAE6024BD86AE7E6014B88
S315000026B0186BE4E6540C010000140424174B5B6B02
S315000026C0C3F34303082B26D801A252F823F000BF18
S315000026D091362008973620089D362008A336200814
S315000026E0A9362008AF36200843352008F5362008DD
S315000026F0FB3620080A4B586BC1E6094B9869BEE6C3
S31500002700064BD86AD96ABDE81040C1F34711C0F339
S315000027104300FFF7E7BD0020B1E600BF0014042424
S31500002720540C0100024B1B68D3F8BC30184700BF9D
S3150000273000013000024B1B68D3F8CC30184700BFAD
S3150000274000013000024B1B68D3F8EC30184700BF7D
S315000027500001300007EE100AFDEEC77AF8EEE76AD0
S31500002760F4EEC76AF1EE10FA41BF17EE903A013364
S3150000277007EE903AF8EEE76A16EE900A7047000008
S31500002780024B01219B69C0B2184700BF001201002D
S31500002790FFF7F6BF1346054A126810B4546C0A4692
S315000027A0A44600215DF8044B604700BF00013000DD
S315000027B010B54FF4006003F047F8094C094B4FF091
S315000027C000725A6422782AB9074B08481B6A01210D
S315000027D09B6A9847237843F00103237010BD00BF1E
S315000027E05015010000840424000130000014042464
S315000027F082B0ADF804000A4B4FF400621A609DF8EF
S315000028000420084B2AB9D3F8082242F40062C3F820
S3150000281008225A68002042F001025A6002B070474E
S3150000282000E100E0003804242DE9F04F224B234854
S3150000283093F81CE0224B1A7800231C4602F5987583
S31500002840D9B28E450CD8DFF880800023A8F5107920
S3150000285002F5907CDAB2964509D80020BDE8F08FE3
S3150000286030F815108C4238BF0C460133E8E743B9FF
S3150000287029F81C300133EDE7B5F820B0594489B288
S315000028800AE000271FFA83FABEB2B442F2D9002248
S315000028900C4D104635F8021F8C4203D9B142EBD1DC
S315000028A0013080B2013292B25245F3D3013700288B
S315000028B0EAD128F81360DDE70012010020120100BA
S315000028C0FC1101005E14010060140100012800D112
S315000028D07047C30701D44008F8E700207047034655
S315000028E00120834208DC00EBD072A3EB6203B3EB5A
S315000028F0A00FB8BF400870474000F2E784B02DE94A
S31500002900F7430AAC84E80F000023ADF806309DF8C3
S31500002910BC515F4B9DF8BD715A885B68B3FBF2F3FF
S315000029200DB9012F40D15B4901250A885A4C07EEA3
S31500002930903A92B20AAB03EB820393ED057AF8EE76
S31500002940677AB8EE477AC7EE877A17EE900AFFF7EE
S3150000295001FF07EE900A0B88FCEEE77A9BB203F5BF
S31500002960987317EE902A24F813200B889BB203F570
S31500002970987334F81330012B06D80B889BB203F5F5
S315000029809873022224F81320444E0DF138094FF0B3
S315000029900008B7EE006A5FFA88F39F4207D803B0D3
S315000029A0BDE8F04304B070470DF10601BDE7B8F18C
S315000029B0000F17D0D9ED007A3288B8EE677AD9EDD4
S315000029C0017AF8EE677AC7EE277A17EE900AFFF7D4
S315000029D0C1FE07EE900AFCEEE77A17EE903A13FB7B
S315000029E002F37380012F08D072881046FFF76EFF3E
S315000029F018B91046FFF773FF70808DB10B880AAACD
S31500002A009BB202EB4303B3F8F430012B08D10B88D9
S31500002A109BB203F5987334F81320920824F8132018
S31500002A20DFED1F7A00231FFA88F09842ADF80630D2
S31500002A300AD2F4EEC67AF1EE10FA27DC08F10108A4
S31500002A40023609F10409A6E70A8892B202F59872DD
S31500002A50013334F8122007EE102AB8EE477A9BB2FB
S31500002A60C6EE076A77EEA67ADFE70A8892B202F523
S31500002A709872013334F812C04FEA4C0C24F812C095
S31500002A809BB29842ADF80630EFD2D7E70023F8E7BD
S31500002A9000120100FC110100201201007E14010049
S31500002AA00000000007EE100ADFED087A084837EE4E
S31500002AB0277AF7EE006AC6EE877AFCEEE77A17EE1B
S31500002AC0903A834228BF03461846704795BFD633CF
S31500002AD0404B4C0084B0F0B506AC84E80E00DFED48
S31500002AE0957A002123AC0DF16B050A460B46CEB252
S31500002AF0B04200F2B080002B00F0A480B0EE007A65
S31500002B00F4EEC77AF1EE10FAB0EE047A05DBF4EED5
S31500002B10C77AF1EE10FA00F1DD80F4EEC77AF1EE35
S31500002B2010FAB0EE087A05DBF4EEC77AF1EE10FA89
S31500002B3000F1D680F4EEC77AF1EE10FAB1EE007A23
S31500002B4005DBF4EEC77AF1EE10FA00F1CC80F4EE74
S31500002B50C77AF1EE10FAB1EE047A05DBF4EEC77A25
S31500002B60F1EE10FA00F1C280F4EEC77AF1EE10FA37
S31500002B7007DBB1EE087AF4EEC77AF1EE10FA00F14F
S31500002B80B880B1EE0C7AF4EEC77AF1EE10FAB2EE36
S31500002B90007A05DBF4EEC77AF1EE10FA00F1AC80AC
S31500002BA0F4EEC77AF1EE10FAB2EE027A05DBF4EE35
S31500002BB0C77AF1EE10FA00F1A280F4EEC77AF1EED0
S31500002BC010FA07DBB2EE047AF4EEC77AF1EE10FAE9
S31500002BD000F19880B2EE087AF4EEC77AF1EE10FAB8
S31500002BE006DBB2EE0C7AF4EEC77AF1EE10FA61D497
S31500002BF0B3EE017AF4EEC77AF1EE10FA06DBB3EE25
S31500002C00027AF4EEC77AF1EE10FA60D4B3EE097ADE
S31500002C10F4EEC77AF1EE10FA06DBB3EE0A7AF4EEBA
S31500002C20C77AF1EE10FA70D9B3EE0B7AF4EEC77AE2
S31500002C30F1EE10FA06DB9FED407AF4EEC77AF1EE7C
S31500002C4010FA74D9DFED3D7A9FED3D7A002A18BF60
S31500002C50F0EE477A65E015F8016FA6F1140CBCF1A9
S31500002C60020F2F7C0FD894ED007AF4EEC77AF1EEBE
S31500002C7010FA03D50133DBB2F0EE477A0D2F16D0EA
S31500002C800131043433E7A7F10A0CBCF1020F0CD86A
S31500002C9094ED007AB4EEE77AF1EE10FA03DD013333
S31500002CA0DBB2F0EE477A182EE9E7182EE6D10132AC
S31500002CB0D2B2E5E7DFED237A9AB39FED217AF4EEFF
S31500002CC0C77AF1EE10FA23D5F0EE477A29E0DFED68
S31500002CD01E7AF1E7DFED1D7AD2B1DFED197A20E039
S31500002CE0DFED1B7AF8E7DFED1B7AF5E7DFED1A7A01
S31500002CF0F2E7DFED1A7AEFE7DFED197AECE7DFEDC1
S31500002D00197AE9E7DFED187AE6E7DFED187A42B1DE
S31500002D109FED0A7AF4EE477AF1EE10FA48BFF0EE2C
S31500002D20477ABDE8F04017EE900A04B07047DFED31
S31500002D30107AECE70000000000004C4295BFD63345
S31500002D408BE16A36EFE608369F9D42362E5A82336D
S31500002D5001A90C3437F859342439EC3434580F357A
S31500002D60AD186335883E8A35ACC5A735B1B49D36F6
S31500002D70F2DD1C3770B50D4616460446D0B9FFF78E
S31500002D80E1FCAA4807222146FFF704FD002D40F08A
S31500002D90AA81012E00F09F810B2C1DD00C2C40F037
S31500002DA0F5800520FFF7CEFCA04807220521FFF796
S31500002DB0F1FC98E0012818D10220FFF7C3FC9B48DC
S31500002DC007220221FFF7E6FC002D76D1012E00F046
S31500002DD082810B2C40F0DA800320FFF7B3FC072238
S31500002DE003219248FFF7D6FC96E002280ED1042074
S31500002DF0FFF7A8FC072204218C48FFF7CBFC002D27
S31500002E0000F06681012D40F0778155E1032805D158
S31500002E100620FFF797FC07220621EDE7042805D1D7
S31500002E200820FFF78FFC07220821E5E7052805D1D2
S31500002E300A20FFF787FC07220A21DDE706280CD1C6
S31500002E407B4B20225A601920FFF774FC1920FFF7EC
S31500002E5069FC78480E221921B4E707281ED1744B65
S31500002E6020225A601B20FFF765FC1B20FFF75AFC47
S31500002E700E221B216F48FFF78DFC002D00F02881E4
S31500002E80012D40F0D980012E00F019810C2C21D1A2
S31500002E900520FFF757FC07220521A2E7082840F086
S31500002EA0FD80634B20225A601D20FFF743FC1D2046
S31500002EB0FFF738FC0E221D21DCE70B2C1ED0012D5E
S31500002EC040F01A81012E00F0FA800C2CE0D00D2C77
S31500002ED000F0C1800E2C50D00F2C6FD0102C75D165
S31500002EE02EE0022D40D0032D52D1012E59D00E2CAA
S31500002EF070D00F2C62D0102C30D121E00320FFF7C8
S31500002F0021FC4A4807220321FFF744FC022D2BD05F
S31500002F10032D03D1012E44D0002070BD042D00F0F6
S31500002F20A480052DDAD1012E40F0A3800720FFF7FB
S31500002F3009FC07223D481146FFF72CFC102C5ED1F8
S31500002F403B4B20225A601A20FFF7F4FB1A20FFF7AA
S31500002F50E9FB38480E221A21FFF71CFC112C50D031
S31500002F60072D5CD1012E88E0012ED5D169E0012E16
S31500002F7067D00D2C0FD00E2CBBD10920FFF7E2FB3A
S31500002F802A4807220921FFF705FCCAE70D2C62D063
S31500002F900E2C68D1F1E70B20FFF7D4FB07220B219B
S31500002FA01FE70B20FFF7CEFB204807220B21FFF778
S31500002FB0F1FB8FE70E2CE0D00F2CB2D10720FFF7E4
S31500002FC0C1FB072219481146FFF7E4FB062DC5D1C0
S31500002FD0012E4FE00920FFF7B5FB0722092100E784
S31500002FE00920FFF7AFFB114807220921FFF7D2FBA3
S31500002FF07FE70720FFF7A6FB07221146F1E6112C13
S315000030000DD10B4B20225A601C20FFF793FB1C208E
S31500003010FFF788FB07480E221C21FFF7BBFB122C8B
S315000030202FD0082D7FF478AF012E28E000C00424AD
S315000030300000304100001346022D7FF454AF012EEC
S3150000304099D10520FFF77EFB2E4807220521FFF7C1
S31500003050A1FB0D2CAED10B20FFF774FB29480722EC
S315000030600B21FFF797FB042DA6D1012EB8D00F2C0C
S31500003070BFD0102C3FF464AF112CC2D0122C7FF4B9
S315000030804BAF214B20225A601E20FFF753FB1E2018
S31500003090FFF748FB1D480E221E21A3E60A287FF4EF
S315000030A075AE0120FFF74EFB164807220121FFF7F8
S315000030B071FB012D7FF415AF012E7FF42DAF032098
S315000030C0FFF740FB0F4807220321FFF763FB65E686
S315000030D0012E7FF421AF0120FFF734FB09480722B8
S315000030E00121FFF757FB0B2C3FF408AF012D3FF4EE
S315000030F0E9AE0C2C3FF455AE022D3FF438AF0D2C43
S31500003100A9D0F0E600C004240000304100001346B8
S3150000311082B02DE9F0410F2906AC84E80C005FD897
S31500003120BDF82040BDF8225044EA0503B3F5806F90
S3150000313056D22E4B079E9DF824809DF825E043F835
S31500003140212001F1100701F1400C43F8276001F13D
S315000031505007B24223F81C4023F8175042D0B8F16A
S31500003160000F17D001F1300802EB4402C0F8D42159
S3150000317043F8282044EAC12242F40048C0F8D88126
S31500003180D0F8D881C0F8D821D0F8D82143F82C80BF
S3150000319043F82720BEF1000F1DD001F1600204EBB9
S315000031A04504344443F82240CA0202F580622A43A9
S315000031B0C0F8D44142F40044C0F8D84101F170048B
S315000031C0D0F8D85143F824508031C0F8D821D0F82F
S315000031D0D82143F821200020BDE8F04102B0704715
S315000031E00120F9E742F20210F6E700BF20120100C3
S315000031F00F2910B528D892B1144A01F1300452F8BB
S315000032002440C0F8D44101F1400452F82440C0F8EB
S31500003210D84101F1500452F82420C0F8D8218BB1CE
S315000032200A4B01F1600253F82220C0F8D42101F1C3
S315000032307002803153F8222053F82130C0F8D8218B
S31500003240C0F8D831002010BD0120FCE72012010093
S3150000325010B5274B27485A685A6842F001025A604F
S31500003260D3F8082242F48062C3F8082203F5B43387
S315000032701A68026852BBD3F8402442F46752C3F876
S3150000328040241D4AD2F80230DC05FBD41B4BD3F890
S315000032900427D107FBD5D3F80427D207FBD4D3F8EC
S315000032A04824174C174B21681A60930803F4F85307
S315000032B00B43910001F07C0112020B4302F47832B9
S315000032C0134343F081032360012303600C4B1A6808
S315000032D00A4BC3F84424084AD2F8023013F4807328
S315000032E0FAD1034A516863F30001516010BD00BF73
S315000032F000380424F01101000000052400A0052474
S31500003300F8110100F411010084B070B52DED028BA7
S3150000331082B008AC84E80F00444C6E9AA2610D9A04
S3150000332043499DF8B531BDF814012377013A8A4225
S3150000333078D20DA90122934209D8012B6FD19DF8AD
S31500003340B43173B101280FD942F2061060E00E467F
S3150000335051F8045F3668B54264D8002D62D0013258
S31500003360E9E7B0F5806FEFD2FFF722FA314B32482A
S315000033705A689FED328A6FF38A225A60DA686FF3D1
S315000033801842DA60DA68042161F30902DA605A68E1
S315000033902B4942F480625A60FEF718FF294B5B689E
S315000033A06360FFF755FF02F07BFB208102F06CFBA8
S315000033B0208202F07BFBC0F30D0307EE103AB8EE55
S315000033C0C77A830BC7EE086A07EE903AF8EEE77AFB
S315000033D077EEA67AC4ED037A02F05CFBC0F30D0328
S315000033E007EE103AB8EEC77A830BC7EE086A01A853
S315000033F007EE903AF8EEE77A002377EEA67A019385
S31500003400C4ED057A03F032F9003818BF01204042B6
S3150000341002B0BDEC028BBDE8704004B07047013BC2
S315000034200F2B90E742F20410F2E700BF00120100F2
S31500003430A0252600003804243333334000007A44A4
S31500003440CDCC4C40540C010084B010B52DED028B50
S3150000345082B006AC84E80F009DF818300F2B7FD899
S315000034604249434C0B706C99A16106A901EB83019B
S31500003470404849699DF8AD2122770139814271D2D0
S31500003480012A6AD106AA02EB43039DF8AC21B3F8E0
S31500003490F43022B1012B05D942F2061056E0B3F5FD
S315000034A0806FF9D2FFF784F9334B34485A689FEDA1
S315000034B0348A6FF38A225A60DA686FF31842DA6048
S315000034C0DA68042161F30902DA605A682D4942F488
S315000034D080625A60FEF77AFEFFF7BAFE2A4B5B68F7
S315000034E0636002F0DDFA208102F0CEFA208202F05B
S315000034F0DDFAC0F30D0307EE103AB8EEC77A830B78
S31500003500C7EE086A07EE903AF8EEE77A77EEA67A03
S31500003510C4ED037A02F0BEFAC0F30D0307EE103ACB
S31500003520B8EEC77A830BC7EE086A01A807EE903A91
S31500003530F8EEE77A002377EEA67A0193C4ED057AD2
S3150000354003F094F8003818BF0120404202B0BDECE9
S31500003550028BBDE8104004B07047013A0F2A9AE783
S315000035600120F3E742F20410F0E700BFFC1101006E
S3150000357000120100A025260000380424333333400E
S3150000358000007A44CDCC4C40540C01000F29024671
S3150000359010B54FF001000CD8D2F8CC4100FA01F377
S315000035A02343D2F8CC119BB263F30F01C2F8CC11BE
S315000035B0002010BD0F29024610B54FF001000DD8AE
S315000035C0D2F8CC4100FA01F343EA1443D2F8CC1105
S315000035D09BB263F31F41C2F8CC11002010BD30B579
S315000035E00F299DF80C402CD81F2A2AD80F2B28D833
S315000035F0012C26D845686D060FD5090134B145184A
S31500003600AC6B44EA835343F08063AB6301448B6B3A
S3150000361043EA42438B63002030BD5CB1D0F8081208
S3150000362041F40071C0F80812D0F8081263F348118B
S31500003630C0F80812D0F8083262F30403C0F8083262
S31500003640E9E70120E8E7000029B9D0F8083261F37C
S31500003650CB23C0F80832064B5B68DB0741BF4368E3
S315000036606FF300034360002058BF4FF0FF307047F0
S3150000367000380424C1B2024882B002B0FFF7E4BFAA
S31500003680003804240F2915D80D4B5A68520603D466
S31500003690D3F8DC31002B0FDAD0F8DC2101238B4084
S315000036A01343D0F8DC219BB263F30F02C0F8DC2190
S315000036B000207047012070474FF40450704700BF48
S315000036C000380424B1F5007F14D2B2F5806F11D210
S315000036D043686FF38A234360C36861F31843C3608A
S315000036E0C36862F30903C360436843F480634360BD
S315000036F000207047012070470F2925D8012A05D1DF
S31500003700436A6FF3D753436200207047022A0BD1F6
S31500003710436A6FF300034362436A6FF30413436221
S31500003720436A6FF3C303EEE7084BD3F8DC31002B93
S31500003730EADA436A0122C3F3CF138A4023EA02017D
S31500003740436A61F3D613DEE701207047003804248C
S315000037500F2903464FF0010014D81A6A00FA01F146
S3150000376089B2186AC2F30F220A4362F3172018625D
S315000037701A6AC2F30F2222EA0102196A62F31721BA
S31500003780196200207047000010B510B1012804D05E
S3150000379010BDBDE81040FFF70BB84FF4006002F013
S315000037A06DF80A4A13786FF300031370DBB2002B2F
S315000037B0EED1074B07484FF000729A64064B1B6A1E
S315000037C0BDE81040DB6B0221184700BF5015010011
S315000037D000840424001404240001300013B50D4BAA
S315000037E0ADF804004FF40062C3F88020BFF34F8F9A
S315000037F0BFF36F8F03220121002003F00BF804466C
S3150000380028B90120FFF7C0FF204602B010BD4FF0D7
S31500003810FF30FAE700E100E04368064A61F3492316
S315000038204360D2F8403443EA4143C2F840340020B2
S31500003830704700BF00A0052484B02DE9F04F2DEDA0
S31500003840028BF1B07CAC84E80F009DF8853365935C
S315000038504FF4C47201237FA9684669939DED818A5E
S315000038609DF8845312F0ECF894E80E006598BA4C73
S31500003870FFF730F905EE900AFFF714F994ED017A97
S3150000388007EE900AB8EE476AF8EE677AB7EE007A66
S3150000389087EE065AC7EE276AC6EE857A17EE900AB5
S315000038A0FEF758FF07EE900AFCEEE77A17EE903A1D
S315000038B0C5EE857A9EB217EE900AFEF74BFF07EE2D
S315000038C0900AFCEEE77A17EE903A9FB2BE4204BF2A
S315000038D00136B6B2002D5ED1BDF8843327804FF491
S315000038E0C27280A9684666809C4CADF8843112F09D
S315000038F0A7F87CAB0FCBFFF701F8FEF795FF324632
S3150000390039462046FFF7DEFE01212046FFF784FFF9
S315000039106368934EDFF8409243F000636360636828
S3150000392043F040036360636865F3410363603323D8
S31500003930C4F8E431636843F004036360D4F8DC310F
S3150000394043F00043C4F8DC310DF2E223669306F13E
S315000039508103A8AF06F13E0B67930DF5F878659ADB
S31500003960EBB29A4200F28D807E4B6A9300227E4B28
S315000039706B9369A9104602F0B1FE10B1452840F0DC
S31500003980E78069996AAA002002F016FF003818BF7E
S31500003990012040426EE0B8EE488A3946C6EE087A03
S315000039A017EE900AFEF7D6FE07EE106A07EE900AAB
S315000039B0B8EEC77A6948B4EEE77AF1EE10FA49BF75
S315000039C0FCEEE77A324617EE903A9AB24DBF628025
S315000039D0278066802780FFF775FE01215F48FFF785
S315000039E01BFF5E4B5A6842F000625A605A686FF3DA
S315000039F086125A606A1E012A5A684FF0000194BF67
S31500003A0042F0020265F341025A60C3F8E4115A68B3
S31500003A1042F004025A60D3F8DC2161F3DF72C3F886
S31500003A20DC219DF8F1219DF844029DF854125AB10B
S31500003A30D3F8086262F34926C3F80862D3F808622D
S31500003A4061F34816C3F80862444ED6F8083260F3AC
S31500003A500403C6F80832FFF78DF92A4600213046DE
S31500003A60FFF74AFE62886368B3FBF2F33F4A002021
S31500003A70C2F8803271B0BDEC028BBDE8F04F04B0E5
S31500003A80704798F854A098F86430649318F8013F8A
S31500003A906393009352462946649B2046FFF79FFD99
S31500003AA036F8021F328C012A08D0AB0003F11053FE
S31500003AB003F58723A3F83811C3F878212946204651
S31500003AC0FFF7E0FDDDE963215046FFF753F929468C
S31500003AD02046FFF76FFD7B6E6C93D7F8A4306D938D
S31500003AE0669B33F802AF669340F20113ADF8BC3122
S31500003AF0ADF8B8A1ADF8BAA170AB13E90300DDE9E2
S31500003B006C238DE8030029462046FFF701FB294672
S31500003B102046FFF73BFD002229462046FFF7ECFD35
S31500003B20B9F80220D9F80430B3FBF2F3328CB3FBB8
S31500003B30F2F34BF8043F57F8043FA6F8D0A0CBF8B1
S31500003B405030679B639A03F8012F0135679306E7A8
S31500003B504FF0FF308EE700BF00120100003804244A
S31500003B605E140100813720089137200820120100D9
S31500003B7084B02DE9F04FEDB076AC84E80F009DF8E7
S31500003B80D8419DF86C639DF86DA301200F2C6590BC
S31500003B9000F21281DFF840828A4D88F800404FF427
S31500003BA0C47279A9684611F04BFF76AB0ECB50462E
S31500003BB0FEF790FF05EE900AFEF774FF95ED017A89
S31500003BC007EE900AB8EE476AF8EE677AB7EE007A23
S31500003BD0C7EE276AC7EE067AC6EEA77A17EE900AF0
S31500003BE0FEF7B8FD07EE900AFCEEE77A17EE903A7C
S31500003BF066EE257A9FB217EE900AFEF7ABFD07EE4A
S31500003C00900AFCEEE77A17EE903A1FFA83F94F45D1
S31500003C1004BF0137BFB2002E51D1BDF86C336A4CD8
S31500003C206F804FF4C2727AA96846A5F80090ADF885
S31500003C30843111F005FF76AB0FCBFEF75FFEFEF782
S31500003C40F3FD3A4649462046FFF73CFD0121204652
S31500003C50FFF7E2FD63685D4F43F0006363606368EE
S31500003C6043F040036360636866F341036360332394
S31500003C70C4F8E431636843F004036360D4F8DC31CC
S31500003C8043F00043C4F8DC31F3B29A4500F2A68053
S31500003C904F4B669300224F4B679365A9104602F07F
S31500003CA01DFD10B1452840F02A81659966AA0020BD
S31500003CB002F082FD003818BF012040427CE076AB5E
S31500003CC003EB8404D4ED057AF8EE677A4946C6EE2E
S31500003CD0277A17EE900AFEF73DFD07EE107A07EEFB
S31500003CE0900AB8EEC77A3848B4EEE77AF1EE10FAE1
S31500003CF049BFFCEEE77A3A4617EE903A9AB24DBFC4
S31500003D006A80A5F800906F80A5F80090FFF7DAFCAE
S31500003D1001212D48FFF780FD2B4B5A6842F00062C7
S31500003D205A605A686FF386125A60721E012A5A68E0
S31500003D304FF0000194BF42F0020266F341025A605E
S31500003D40C3F8E4115A6842F004025A60D3F8DC2141
S31500003D5061F3DF72C3F8DC2198F8002002F5EC72FB
S31500003D606A4492F8540092F8641052785AB1D3F823
S31500003D70084262F34924C3F80842D3F8084261F3C3
S31500003D804814C3F80842104FD7F8083260F304030A
S31500003D90C7F80832FEF7EEFF98F800403246214693
S31500003DA03846FFF7A9FCA0346A886B68B3FBF2F3C8
S31500003DB0064A42F8243000206DB0BDE8F04F04B04A
S31500003DC0704700BF001201000038042420120100D1
S31500003DD08137200891372008FC11010098F800105F
S31500003DE0639101F5EC736B44204693F8642093F8D5
S31500003DF0549093F801B062921346CDF800B04A464B
S31500003E00FFF7EDFB639901F5907337F8130001F5A1
S31500003E10987337F81320012A08D08B0003F110534A
S31500003E2003F58723A3F83801C3F878212046FFF766
S31500003E3029FC5A4662994846FEF79CFF98F800907E
S31500003E4020464946FFF7B6FB76AB03EB89030136FE
S31500003E50D3F81431689376AB03EB8903D3F8543166
S31500003E60699376AB03EB4903B3F8F430ADF8A831A8
S31500003E70ADF8AA3140F20113ADF8AC316CAB13E9E1
S31500003E800300DDE968238DE8030049462046FFF775
S31500003E903FF998F8009020464946FFF777FB4946D8
S31500003EA000222046FFF728FC09F1A00269886B680A
S31500003EB0B3FBF1F309F5987137F81110B3FBF1F381
S31500003EC047F8223076AA02EB490209F5C473B2F824
S31500003ED0F42027F8132076AA02EB890209F1B4032D
S31500003EE0D2F8B42047F8232009F5EC7207EB090352
S31500003EF00DEB020999F8012083F8C022C4E64FF0C1
S31500003F00FF3059E7D0F8E03143F00103C0F8E03163
S31500003F10002070472DE9F341374B9A6A0192019AC6
S31500003F2016020DD5426A1502C2F3C05008D45A6A69
S31500003F3042F400025A62314B9B690421984718E00B
S31500003F40019BDC0709D52C4A136A43F0010313626F
S31500003F502A4B05219B690020F0E7019C14F0807430
S31500003F600BD02548012100F095F8254B02201B684F
S31500003F709847002002B0BDE8F0811F4B5A685006F2
S31500003F8003D4D3F8DC21002A25DA1E4D1A4FDFF8B8
S31500003F906C80019BE21DD340D90716D521463846D1
S31500003FA0FFF7D6FB2B78E6B2B3FA83F25209314615
S31500003FB03846FFF71DF9D8F81830002130469847E3
S31500003FC02B78B3FA83F35B092B700134102C05F1BF
S31500003FD00105DED1CDE75A689207CAD4D3F8DC11C1
S31500003FE0C90FC6D15A6842F004025A600198034BC1
S31500003FF0C0B29B69A2E700BF00380424001201008A
S3150000400054150100E01101000148FFF783BF00BF0E
S3150000401000380424030548BF20F40060174B58BF3E
S3150000402040F40060D1B11A8A93ED057A821A07EE40
S31500004030902AF8EEE77A67EE877AFDEEE77A17EED2
S31500004040903A18B2B0F5805F11DA002812DDB0F5AB
S31500004050006F10DBA0F5006000B270471A8993ED7F
S31500004060037A821A07EE902AF8EEE77AE3E740F63B
S31500004070FF70EFE7002000F50060EDE70012010099
S31500004080406921B11146C0F30B00FFF7C3BFC0F36F
S315000040900B007047436A01291DBF43F002034362C8
S315000040A0436A43F0807318BF43F004034362002061
S315000040B070472DE9F04F92F806C092F802A05378A7
S315000040C0D5781679577992F807E092F8088092F831
S315000040D0099092F80AB0D47A127802B35B0643EAE2
S315000040E04B7343EA8A5343EA495343EA085343EA84
S315000040F04E4343EA0C4343EA47330901026843EA65
S31500004100C62301F1105143EA852301F5872142F0C8
S31500004110004243EA44230260CB63BDE8F08F0268A5
S315000041206CF3C712026002686AF34F3202600268DB
S3150000413063F313420260036865F341030360036897
S3150000414066F383030360036867F30613036003687B
S315000041506EF30A230360036868F3CB2303600368E6
S3150000416069F30C33036003686BF31453036003684D
S3150000417064F300030360D0E710B4034C2468646C56
S31500004180A4465DF8044B604700013000034B1B68F2
S315000041900A469B6C01460248184700BF00013000E2
S315000041A0001404248A1E70B543680D46052A04D8F7
S315000041B0DFE802F01B1D4C4E50528469B3F1884F64
S315000041C060D163783F2B19D95B4B60781B68403808
S315000041D0D3F8E830C0B2984762785848403A062388
S315000041E0D2B20021FFF7C8FF08E0C469E6E7B3F1E1
S315000041F0884F046A32D160783F283AD8E07820B1F7
S315000042004D4B1B68D3F8C03098476078A0F119036E
S31500004210052B04D8484B1B68D3F8B8309847032DB4
S3150000422006D1454B60781B680121D3F8D4309847F6
S31500004230414B60781B68D3F8C8309847A3786278FA
S3150000424021783F48BDE87040FFF796BF446AB5E75E
S31500004250846AB3E7C46AB1E7046BAFE7394A9342AD
S31500004260C9D0394A934211D160783F28C6D9032D67
S31500004270AAD1314B1B684038D3F8F0300121C0B2C7
S315000042809847A1E72F4A9342EBD19AE72F4A9342E8
S3150000429050D1002C4ED062783F2A18D9032D07D171
S315000042A0254B1B68403AD3F8F0300121D0B298472D
S315000042B0214B60781B684038D3F8E830C0B2984785
S315000042C06278A37821781D48403AD2B2BAE71C48F2
S315000042D021780923FFF750FFE07820B1164B1B68C1
S315000042E0D3F8C0309847032D06D1134B60781B686E
S315000042F00121D3F8D43098470F4B60781B68D3F868
S31500004300C830984721780D4862780023FFF734FFBC
S315000043106078A178A0F12E03032B02D82638C0B20C
S3150000432002E00F2804D10720BDE87040FFF72EBF3A
S315000043300638F4E770BD00BF0001300000C0042459
S315000043400000134600010044000002450018042442
S31500004350F0B5436885B00024B3F1884F0194054653
S31500004360029403940BD0774A934208D0764A93423C
S3150000437000F0D180754C181B4442444164009A6891
S315000043800192019A02F00602062A4FEA84742CD1A1
S315000043905B690293029B990710D56A6913686BB132
S315000043A001215171202098476B6993F82820032A30
S315000043B004D193F826300BB144F01004029B5A073F
S315000043C007D56A69136823B1012111724FF4007091
S315000043D09847029B1B0740F1A0806A69136823B1C6
S315000043E00121D1714FF480709847019B9E071DD51E
S315000043F06B691E6910201A6A6968964209D09F691E
S315000044000138BF5C0F6002F101021A62F3D19642D5
S315000044100CD14A6822F002024A60002283F8262064
S315000044201B681BB144F0010420469847019B5807BE
S3150000443038D56B691A68002A34D06A685169C90789
S3150000444025D511685A69DB69D1546B69DA69D9686F
S3150000445001328A42DA611AD169684A6822F0010299
S315000044604A6093F82820023A0021012A197164D87B
S3150000447093F8272083F82710022A5ED0032A59D002
S31500004480012A01D144F001041B68204698476B6954
S315000044901A683AB1D969DB68994203D044F04004FE
S315000044A020469047019B1A074AD16B689B69039384
S315000044B06B78DB0608D5039BDF0705D56B6944F4EB
S315000044C080641B68204698476B785E0608D5039B78
S315000044D0980705D56B6944F400641B682046984725
S315000044E0AB78D90708D5039B5A0705D56B6944F401
S315000044F000541B682046984795F90130002B1FDAB7
S31500004500039B1B071CD56B691B6844F4805005B0E0
S31500004510BDE8F0401847012431E7029BDF067FF52E
S3150000452064AF6A691368002B3FF45FAF0121917194
S31500004530802059E744F00404A6E744F00204A3E708
S3150000454005B0F0BD00010044000002450018042437
S3150000455030B504460AB3B0F5E10F1ED8536880257E
S31500004560DD608900B1FBF0F1D3F8C0006FF3050000
S31500004570C3F8C000002018605860D860DD60C1F341
S3150000458087151D60C1F3873501F03F015D60C3F8F3
S31500004590C010D8605369DC6230BD40F20160FBE7B1
S315000045A037B54A6992F8293013F001030C4657D102
S315000045B0C2E90003137282F8263082F824304B6871
S315000045C0B3F1884F02D0354A934212D1344B1022B0
S315000045D09A60344BA26BDB69019294F83420009206
S315000045E0D3F8A45094F83C20002301214FF08C40CE
S315000045F0A84762682C4B9A4215D103F15F4303F535
S31500004600213310229A60274BA26BDB69019294F842
S3150000461034200092D3F8A45094F83C200123194684
S315000046204FF08C40A8476268204B9A4210D103F5A0
S31500004630D8434FF400125A641A4B228F1B6A009219
S31500004640DD6994F83C2094F8353019480121A847D3
S31500004650E3683BB923692BB96369012283F82920F2
S3150000466000200EE06368B3F1884F0CD00B4A9342EA
S3150000467009D00D4A934206D00C4A93420BD04FF014
S31500004680FF3003B030BD00230A48036001F0EEFF9F
S315000046900028E1D0F3E70123F6E700BF000100445C
S315000046A000840424000130000000024500180424A0
S315000046B0001404245815010038B54368B3F1884F37
S315000046C0044602D0264A934207D1264BDB690021D5
S315000046D0D3F8E8304FF08C4098476268224B9A42F4
S315000046E007D1204BDB690121D3F8E8304FF08C402D
S315000046F0984762681D4B9A4205D11A4B1C481B6AA3
S315000047000821DB6B9847E26832B9236923B96369EC
S31500004710002083F8290038BD6368B3F1884F0BD0B9
S315000047200F498B4208D010498B4205D00F498B4266
S3150000473002D04FF0FF30EEE711790E4D03222868C4
S31500004740013102F067F80028F3D123692868197946
S315000047500322013102F05EF80028D8D0E9E700BF55
S315000047600001004400013000000002450018042446
S31500004770001404245815010010B50C4620B1022877
S315000047807ED06FF0030010BD91F90830002B0DDBD1
S315000047905A09012103F01F03994002F120034A4AF6
S315000047A042F82310BFF34F8FBFF36F8FE268616942
S315000047B063683ABBD4E904216368002A3ED1636882
S315000047C0424AB3F1884F51D11023D36094F908308F
S315000047D0002B09DB5A09012103F01F03994002F15E
S315000047E06003394A42F82310636900225A601A723C
S315000047F083F8262093F8292022F0020283F8292044
S315000048000020C0E791F826100029D3D0B3F1884FD5
S315000048100BD02F498B4208D02E498B4205D02E490A
S315000048208B4202D04FF0FF30ADE711792B4B0131AF
S31500004830186802F0A7F90028BCD0F3E70979002927
S31500004840BDD0B3F1884F08D021498B4205D021490C
S315000048508B4202D020498B42E4D111791F4B0131A2
S31500004860186802F08FF90028A9D0DBE718498B42B7
S31500004870AAD018498B42A7D04FF400139364A5E73A
S315000048804A6992F82930D907CCD513F00203B7D17B
S3150000489061684B605360137282F826304FF44073A0
S315000048A0138594F90830002BAADB03F01F015B097E
S315000048B09B0003F1604303F5614301228A40C3F87C
S315000048C080211A609CE700BF00E100E00084042418
S315000048D00001004400000245001804245815010098
S315000048E02DE9F0430E468BB09046074600287BD054
S315000048F0002979D0536993F82920510704D44FF041
S31500004900FF300BB0BDE8F08393F82620002A6ED165
S31500004910012583F82650D8F80C90D8F80440986101
S315000049201E611A62B9F1000F4AD0B4F1884F09D05E
S31500004930304B9C4206D0304B9C423FD02F4B9C4282
S31500004940DDD10325142200210DEB020011F007F83A
S3150000495099F80430049401330093294B0193294BB1
S31500004960294C0896CDE902370323069320688DF873
S31500004970265040F2011301226946ADF8243001F0B9
S31500004980ADFE08B14528BAD10099206801AA01F008
S3150000499013FF0028B3D10099206803AA01F07EFF17
S315000049A00028ACD1D8F80C3020681979013102F012
S315000049B0CDF8206802F0E8F80020A2E70225C1E75A
S315000049C0626992060ED4636843F002036360F3E7FC
S315000049D0501C1862BA5C22600139F4D01A6AB242DD
S315000049E0F6D1F0E71021F9E76FF0040089E76FF0E0
S315000049F0010086E700010044000002450018042477
S31500004A00FD2F2008FF2F2008581501002DE9F0433F
S31500004A100F468BB01546804600286BD0002969D01A
S31500004A20536993F82920520761D51A79012A64D06F
S31500004A30002201245C601A72D5F810906E68D96065
S31500004A405861DA61B9F1000F4CD0B6F1884F09D040
S31500004A502B4B9E4206D02B4B9E4241D02A4B9E4268
S31500004A6045D103241022002106A810F078FF99F8FA
S31500004A7004308DF8264001330093244B0193244BD8
S31500004A80244CCDF81080CDE9023603230593206827
S31500004A9008974FF4817301226946ADF8243001F07E
S31500004AA01DFE08B1452822D10099206801AA01F00F
S31500004AB083FEE0B90099206803AA01F0EFFEB0B9C1
S31500004AC02B6920681979013102F040F895F84030D9
S31500004AD013B9206802F058F800200BB0BDE8F08347
S31500004AE00224BFE7736843F001037360F4E74FF0F5
S31500004AF0FF30F2E76FF00400EFE76FF00100ECE73C
S31500004B00000100440000024500180424FD2F20087F
S31500004B10FF2F2008581501002DE9F3470746DDE968
S31500004B200AA8DDF83090084616461D461FB311B395
S31500004B300AB35B6993F82920520723D595F84040BC
S31500004B40F4B12A7812F0060F1CD0032283F827202E
S31500004B503146CDE9008953462A46FFF757FF60B92B
S31500004B6053462A4631463846CDE90A8902B0BDE8A1
S31500004B70F047FFF7B5BE6FF0040002B0BDE8F0875E
S31500004B802046FAE74FF0FF30F7E74369186A7047A7
S31500004B904369D869704700002DE9F0471C465B69F8
S31500004BA0924693F8292080469007894603D44FF011
S31500004BB0FF30BDE8F0875FFA88F5A5F115010529F4
S31500004BC000F2E480DFE801F0031828416D98B9F19E
S31500004BD0000F0CD002212046FFF7E4FA626992F832
S31500004BE0293043F0080382F829300020E1E722F05B
S31500004BF0080283F82920F8E7B9F1000F09D003214C
S31500004C002046FFF7CFFA626992F8293043F0100385
S31500004C10E9E722F01002ECE7B9F1000F0DD093F8A6
S31500004C202620002A40F0F6816168CA6842F04002F8
S31500004C30CA60012283F82620D7E76168CA6822F095
S31500004C404002CA6083F82690CFE76268516821F077
S31500004C5002015160D4E90310F0B9C1B10D20906092
S31500004C6093F82630ABB1B2F1884F08D08F4B9A42F9
S31500004C7005D08F4B9A4202D08E4B9A4209D10979C0
S31500004C808D4B0131186801F07DFF10B18FE70523C8
S31500004C90936063690022CDE70D2090600029DFD183
S31500004CA0F7E76268516821F001015160216949B94D
S31500004CB0E3682BB903239360636900221A7194E7B2
S31500004CC00B23F8E70B2090601B79002BF4D0B2F190
S31500004CD0884F08D0754B9A4205D0754B9A4202D040
S31500004CE0744B9A42E8D10979734B0131186801F087
S31500004CF049FF0028E0D05AE76268516821F00301B5
S31500004D005160E16869B9D4E90421636812BBE368BC
S31500004D10002B39D1072362689360636900221A71F8
S31500004D2088E793F82630002BEDD0B2F1884F08D0F3
S31500004D305E4B9A4205D05E4B9A4202D05D4B9A4238
S31500004D40E1D109795C4B0131186801F01BFF00289D
S31500004D50D9D02CE70979B9B1B3F1884F08D05349B6
S31500004D608B4205D052498B4202D052498B420BD11D
S31500004D701179514B0131186801F004FF00287FF4C6
S31500004D8016AF2369002BC2D00F23C4E76A1E132A6D
S31500004D9000F24381DFE812F03900140047005E009C
S31500004DA06F00920041014101410141014101410170
S31500004DB04101410141019700170092009A009200BB
S31500004DC094F8403013B96FF00600F2E66268374B8C
S31500004DD09A42F8D12378990717D501212046FFF783
S31500004DE0E1F963689A6D42F001029A659A6D42F0A4
S31500004DF002029A6594F841109A6D41B342F010028E
S31500004E009A659A6D42F020029A6508F4E066B6F556
S31500004E10A06F73D05ED8002E73D0B6F5807F72D0A7
S31500004E206FF00800C5E66268204B9A42CBD1237822
S31500004E305A07C8D501212046FFF7B4F963689A6D71
S31500004E4042F001029A659A6D6FF34102D1E761F370
S31500004E500412D5E721780B07D7D563681A6C42F0A0
S31500004E6001021A641A6C8F074CBF6FF3410242F0BD
S31500004E7002021A64C9E76368B3F1884F02D00B4A8D
S31500004E809342A0D12378DE069DD506212046FFF762
S31500004E9089F920460721FFF785F92378D80692D5A8
S31500004EA06268136943F040031361AEE700010044F2
S31500004EB0000002450018042458150100257815F055
S31500004EC02005A2D07FE783F824908EE6257815F09A
S31500004ED04005F6E7B6F5C06F17D0B6F5E06F9FD17F
S31500004EE00026022708F44053B3F5805F10D0B3F5CF
S31500004EF0005F1BD073B16FF009005AE60026002749
S31500004F00F0E70327EEE70926F9E700260127E9E798
S31500004F1047F0180708F44043B3F5804F09D0B3F5BE
S31500004F20004F06D03BB16FF00A0042E647F0080793
S31500004F30F0E747F0040708F44033B3F5003F2FD0FD
S31500004F4007D8002B3BD0B3F5803F19D06FF00B008C
S31500004F502FE6B3F5403FF9D1637803F01803182B19
S31500004F6007D104212046FFF71DF905212046FFF74A
S31500004F7019F9238803F4C073B3F5C07F0BD0E5E7B6
S31500004F806378190703D505212046FFF70BF994F935
S31500004F900030002BDADA6268136943F022030DE071
S31500004FA06378DA0603D504212046FFF7FBF8637819
S31500004FB0DB07CBD56268136943F020031361AB1E90
S31500004FC0012B05D818F4802F2AD118F4002F2AD1E6
S31500004FD0D4F80480D8F8103023F01003C8F8103045
S31500004FE0224651464846FFF7B3FA6369012183F822
S31500004FF02850C8F80810C8F80C70C8F8CC60D8F863
S31500005000AC2061F3C402C8F8AC2093F8292042F022
S315000050100402EEE56FF00100CBE56FF00300C8E592
S315000050206FF00C00C5E56FF00D00C2E542694368FC
S31500005030107A5969137981F080015B00C1F3C011C0
S3150000504003F002030B435179C90001F008010B4339
S315000050509179090101F010010B43D179490101F061
S31500005060200180010B4300F0400018437047000008
S315000050704B6993F829305B0732D54B68002B32D049
S31500005080032830D8DFE800F0020B121F4A78120717
S3150000509029D51A6922F002021A61002070474A785F
S315000050A0100720D51A6942F00202F5E7B3F1884FDE
S315000050B002D00E4A934216D14A78910613D51A6940
S315000050C022F00102E8E7B3F1884F02D0074A934283
S315000050D009D14A78920606D51A6942F00102DBE741
S315000050E04FF0FF3070476FF0030070470001004437
S315000050F0024630B5536800201BB3516991F8291058
S3150000510049071ED5557899699278EB064CBFC1F3CD
S315000051100013034615F0400418BFC1F3401412F003
S31500005120010218BFC1F380122D060FD5C1F3C011BD
S3150000513043EA440343EA810343EAC20363F30700F5
S3150000514030BD0246014604460346F1E70021EFE77B
S3150000515041F20273984221D011DC41F20453984285
S315000051601CD005DCF8B101280CBF212001207047B6
S3150000517041F2017398420CBF11200120704742F2A0
S31500005180041398420CD042F2061398420AD042F217
S31500005190031398420CBF212001207047212070473D
S315000051A0282070472B207047014BDB695B6E184740
S315000051B000013000014BDB699B6B18470001300092
S315000051C0014BDB695B6A184700013000484B994286
S315000051D070B50C46154600F28880464B99420AD9AE
S315000051E0454B4FF400125A62444B10229A615A6C96
S315000051F042F010025A64012842D0022861D060BBF6
S315000052003F4B404EDB690121D3F8EC30A42208461F
S3150000521098473D4B9C60FFF7D3FF3C4B9D4205D121
S3150000522003F0CEFA736823F4404373604FF4594396
S31500005230A6F86030324BDB692A469B6821464FF060
S315000052408C40984750B9324B9C420BD8314B4FF4A7
S315000052500032DA664FF48022DA660020BDE870403C
S31500005260FFF776BF2C4B9C42F7D92A4BDA6E920396
S31500005270F3D44FF480229A664FF400329A66ECE734
S31500005280214B204E5C61FFF78FFF204B9D4205D1DD
S3150000529003F096FA736823F4404373604FF459435E
S315000052A0A6F8A030164BDB692A469B6D21464FF0C7
S315000052B08C4098470028D1D1592CC7D95A2CD4D123
S315000052C0CBE7114B9C61FFF775FF03F079FA0D4BA5
S315000052D04FF45942A3F8E020094BDB692A46DB6B01
S315000052E021464FF08C409847B8E7212070BD00BF9B
S315000052F00095BA0AFF0D2707000028200080004607
S315000053000001300000801846540C0100005A620269
S315000053107F4A5D0500840424BF8C6C051E4B9942B0
S3150000532070B505460E460DD81C4A536A23F4001381
S3150000533053621B4B9A6922F010029A615A6C22F052
S3150000534010025A64002211464FF08C4000F0BEFB5A
S315000053500446FFF7FDFE0246D8B9D5B1042D13D198
S31500005360104A31460120FFF731FF04B22046FFF70D
S31500005370EFFE024668B929464FF08C4000F0A6FBC6
S31500005380BDE87040FFF7E4BE022DEFD1054A314675
S31500005390E9E7104670BD00BFFF0D27070000282073
S315000053A000800046005A620208B503F009FA03219C
S315000053B04FF08C4000F06AFC03F002FA032000F084
S315000053C0D7FCBDE8084002490220FFF7A7BF00BF8F
S315000053D00095BA0A044BDB6803604FF08C43986A69
S315000053E000F00F00704700BF540C0100044B4FF44F
S315000053F08072DA63034B4FF400629A60704700BF15
S31500005400008104240000081208B5284B4FF40062FE
S315000054101A60274AD2F88C3743F4004343F08003DE
S31500005420C2F88C37D2F88C375B06FBD5D2F88C27BE
S31500005430204BDFED216A9FED216A214902F03F02F0
S315000054401A601A68262A84BF26221A601D4A9268A4
S31500005450EAB11D48C2F315020260D3ED007A90ED61
S31500005460007AF8EE677AB8EE477A77EEA67A37EEE4
S31500005470267A67EE867AC7EE876AC1ED006AFFF77D
S31500005480B5FF0A4B4FF400625A60086808BDD3EDB9
S31500005490007AF8EE677A77EEA67ADFED0C6A67EEA9
S315000054A0867A87EEA67A81ED007AE8E70000081290
S315000054B000A005246415010089410B423333534093
S315000054C05C1501007407010060150100C4A0834249
S315000054D0F0B5A24CA24BA2680578A24E02EA0301DF
S315000054E0027802F001020A439F49A2608A6802EA32
S315000054F00304427802F00102920042EA9512224326
S315000055008A600A69457802EA03040278C2F3440213
S315000055102243964C0A61A26802EA0301827802F0ED
S315000055200302520142EAD5020A439149A2608A68FF
S3150000553084781A4042EA94028E4C8A60A268C17846
S315000055401A4001F01F011143A160B268047902EA12
S31500005550030504F03F04C278640044EAD214C2F39F
S31500005560411242EA84022A43B260834E4579B26808
S3150000557002EA0304027905F07F05920942EA8502F0
S3150000558022437E4DB260AA6802EA0304C27902F0A1
S315000055900F0222437A4CAA60A268C579067A1A409D
S315000055A042EA1512774DA260AA6802EA0304427C19
S315000055B002F07F022243AA60734DAA6802EA03043E
S315000055C0027A02F07F022243AA60704DAA6802EABC
S315000055D00304427A02F01F02520042EAD612224324
S315000055E06B4EAA60B268857A02EA0304C27A520058
S315000055F042EAD512057B05F0010542EA452222431F
S31500005600644DB260AA68467A02EA0304827A02F01E
S315000056107F02D20042EA56122243AA605E4D5F4ED6
S31500005620AA6802EA0304B0F80D202243AA60B26811
S31500005630457D02EA0304027D05F00F0542EA0522D4
S315000056402243574DB260AA68564E02EA0304427DD1
S31500005650C2F302122243AA60B268C57D477902EA04
S315000056600304827D05F00F0542EA05222243B2605B
S315000056704D4EC57DB26802EA0304027E120142EA7B
S315000056801512457E05F00F0542EA05322243474DC5
S31500005690B260AA68467E02EA0304827E120142EAEA
S315000056A016122243AA60424DAA6802EA0304B0F821
S315000056B01B202243AA603F4DAA6802EA03048279AE
S315000056C0560802F00102520042EAD71242EA860266
S315000056D02243847CAA60457C90F8246004F00F0283
S315000056E0520052EAD512344D1EBFA9681940114323
S315000056F0A960324D1A4AAB6803EA0201437F03F000
S315000057000F030B43AB602E4DAB6803EA0201837FA8
S31500005710C3F383030B43AB602A4DAB6803EA020174
S3150000572090F8253003F007035B0043EAD6130B43DA
S31500005730AB60254DAB6803EA0201C37C03F00303AB
S315000057405B0043EAD4130B432049AB608B681A40D5
S31500005750837CC3F3021313438B60F0BD540801002E
S315000057600000C0FFDC070100400801002808010016
S315000057701008010004080100C00701009807010095
S315000057808C0701001C080100800701007407010056
S31500005790680701006C080100500701005C07010062
S315000057A0CC06010044070100380701002C07010060
S315000057B020070100A4070100F807010014070100F3
S315000057C008070100FC060100E4060100F0060100DE
S315000057D0FBF7D4BDF0B5194D194C2B88E5B004F193
S315000057E01001002600274FF4C2726846ADF88431D6
S315000057F0CDE9626710F024F994E80F0000F086FD09
S3150000580062A800F023FE2B78687843EA002000F0B7
S31500005810D5FEDDE9624532463B46204629460FF075
S31500005820EFF848B1074B0022204629460FF0D4F87E
S3150000583010B10020FBF7F6FD65B0F0BDB802000020
S315000058402401000000004E4010B50A4A0A4BD2F867
S315000058500815D3F80240E405FBD440EA5110C2F81B
S315000058600805D3F80220D205FBD4024BD3F808353D
S3150000587010BD00BF00A005240000052410F4405F01
S315000058800F4B0BD0D3F8042522F48012C3F804255D
S31500005890D3F8042522F40012C3F80425D3F808250A
S315000058A0084BD3F80210C905FBD4C04300EA5210D6
S315000058B0034AC2F80805D3F80220D205FBD4704784
S315000058C000A00524000005240D4A0E49D2F8103523
S315000058D0013823F0030310B5C0B2C2F81035D1F871
S315000058E00230DC05FBD4D2F8104501238340234364
S315000058F0C2F81035D1F80230DB05FBD410BD00BF6D
S3150000590000A00524000005242DE9F04F88B30568A2
S315000059107DB3002100F1040C01275CF831600131F0
S3150000592050F83130C3F38454C4EBD3620132162AE3
S315000059301FD84FF00009D6F80080A646CA46224472
S3150000594007FA0EFB0EF1010E28EA0B08724507FA5C
S3150000595009FB4AEA0B0A09F10109F1D803EA0A032D
S31500005960A34043EA0803A9423360D6D10020BDE82C
S31500005970F08F0120FBE7F0B500B30768F7B100250B
S315000059804FF0010C013550F83530C3F38454C4EBA5
S31500005990D3620132162A11D800210E4622440CFA8F
S315000059A001FE013146EA0E0604EB010E7245F6D8F9
S315000059B0BD42E7D103EA0600A040F0BD0120FCE7A6
S315000059C0024A93689B0D9B0593607047CC060100C5
S315000059D0034AD2F8383723F00403C2F83837704741
S315000059E000800524064B074A996C0748DA620229AB
S315000059F0D96C08BF1A60022908BF5A60FFF784BF36
S31500005A00540C01000048E80128080100024B034A33
S31500005A1003485A63FFF778BF540C01000048E801B9
S31500005A2010080100064B074A996C07481A630529B6
S31500005A30D96C08BF1A60052908BF5A60FFF764BF12
S31500005A40540C0100002D310180070100034B04486E
S31500005A504FF4FA421A62FFF757BF00BF540C010019
S31500005A6004080100034B04484FF4FA425A62FFF758
S31500005A704BBF00BF540C0100A40701000148FFF70B
S31500005A807ABF00BF5C0701000148FFF774BF00BF83
S31500005A90440701000148FFF76EBF00BF3807010049
S31500005AA00148FFF768BF00BF2C0701000148FFF758
S31500005AB062BF00BF200701000148FFF75CBF00BFBF
S31500005AC05007010001B108477047000010B50028D3
S31500005AD052D03E2A50D82B4BDB689C0748BF520851
S31500005AE0052949D8DFE801F003481B26313C836AC3
S31500005AF06FF303038362244B1B6824490B60846D98
S31500005B00E405FCD5846A62F30914846212B1B3FB1E
S31500005B10F2F30B601C4B0A68DA60002010BD836D3F
S31500005B209B062BD5836A022161F303038362164B1E
S31500005B309B68E2E7836D5C0620D5836A032161F3E7
S31500005B4003038362104B1B69D7E7836D190715D5CD
S31500005B50836A042161F3030383620B4B5B69CCE721
S31500005B600B4B5B6A5B0709D5836A052161F3030367
S31500005B708362054B9B6BC0E70120CFE741F20170C2
S31500005B80CCE700BF00860424540C0100A40C0100DD
S31500005B900014042407B50B46114606281ED8DFE874
S31500005BA000F00421333B47586400364A106A40022D
S31500005BB05EBF106A40F48000106213B90A20FFF736
S31500005BC081FF314BD3F81C2122F08012C3F81C212F
S31500005BD0D3F81C2142F00122C3F81C21002003B097
S31500005BE05DF804FB274A106A800207D4106A40F465
S31500005BF080101062106A40F400101062002BEDD184
S31500005C000A20FFF75FFFE9E71E4A106AC002F5D4D3
S31500005C10106A40F48010F0E71A4A106A00035EBF6B
S31500005C20106A40F400201062002BD7D10220E8E76A
S31500005C30144B1A6A5203D1D41A6A42F480221A62A9
S31500005C404FF4FA700191FFF73DFF019940F2DC50E5
S31500005C50D7E70C4A106A80035EBF106A40F4003032
S31500005C601062002BBAD1FA20CBE7064A106AC003AD
S31500005C705EBF106A40F480301062002BAED19620D1
S31500005C80BFE700BF008104240080042410B5044649
S31500005C90002858D00139052955D8DFE801F003134B
S31500005CA01D273445294BD969012262F30201D961C6
S31500005CB0274B9A645B6C264A1360A36D002BFCDAB3
S31500005CC0002010BD214BD969022262F30201D9617D
S31500005CD01F4B9A64DB6AEEE71C4BD969032262F319
S31500005CE00201D9611A4B9A64DB6BE4E7194B402237
S31500005CF09A83164BD969042262F30201D961144BC7
S31500005D009A641B6CD7E7114B1A6AD2025EBF1A6AF5
S31500005D1042F480121A62D969052262F30201D9613E
S31500005D200B4B9A641B6BC6E7012100220846FFF75E
S31500005D3031FF064BD969062262F30201D961044B91
S31500005D409A645B6BB7E70120BBE700BF00810424C0
S31500005D50540C010000801341044B1A6822F00F0214
S31500005D601A601A6810431860704700BF00000524C7
S31500005D70013808B5052850D8DFE800F003101A24CA
S31500005D803140274BD969012262F31241D961254B73
S31500005D90DA645B6C234A0020536008BD204BD96946
S31500005DA0022262F31241D9611E4BDA64DB6AF1E723
S31500005DB01B4BD969032262F31241D961194BDA648C
S31500005DC0DB6BE7E7184B40229A83154BD96904220F
S31500005DD062F31241D961134BDA641B6CDAE70022D5
S31500005DE001210220FFF7D6FE0D4BD969052262F389
S31500005DF01241D9610B4BDA641B6BCBE70121002200
S31500005E000846FFF7C7FE064BD969062262F3124120
S31500005E10D961044BDA645B6BBCE70120BDE700BFC8
S31500005E2000810424540C0100008013412DE9F04147
S31500005E3090461F460446002800F09880FF2A00F28C
S31500005E409580072900F292800139494D494E06296D
S31500005E5005D8DFE801F00E1D455463727C00002072
S31500005E60FFF77AFF63696FF34403636173682B601E
S31500005E701DE00020FFF770FF00213A460520FFF7DE
S31500005E8089FE6369012262F344036361336AEEE7C4
S31500005E900020FFF761FF00213A460620FFF77AFE51
S31500005EA0736A2B606369022262F344036361A36A27
S31500005EB01B07FCD562695FFA88F363F34C126261D3
S31500005EC0636943F001036361B8F1000F03D02B68E7
S31500005ED0B3FBF8F32B602B68F3600020BDE8F0817C
S31500005EE00020FFF739FF00213A460420FFF752FE53
S31500005EF06369032262F344036361B36AB7E7002070
S31500005F00FFF72AFF00213A460320FFF743FE6369A5
S31500005F10042262F344036361F36AA8E70020FFF7F3
S31500005F201BFF00213A460220FFF734FE6369052273
S31500005F3062F344036361336B99E70220FFF70CFFBA
S31500005F406369062262F344036361F3688FE7002006
S31500005F50FFF702FF00213A460120FFF71BFE6369A7
S31500005F60072262F344036361736B80E70120B5E7A0
S31500005F70A40C0100540C010041F20273984221D096
S31500005F8011DC41F2045398421CD005DCF8B101281B
S31500005F900CBF21200120704741F2017398420CBFCB
S31500005FA011200120704742F2041398420CD042F2AD
S31500005FB0061398420AD042F2031398420CBF2120DE
S31500005FC00120704721207047282070472B207047FA
S31500005FD00378012B06D84378013B0F2B94BF002092
S31500005FE02120704721207047002370B5194600F123
S31500005FF0F2041A4634F8026FDDB2013336B10132CB
S31500006000D2B2012A01D99A420BD12946102BF1D1DD
S315000060101A4B1B78934204D1012A04D10378994282
S3150000602002D0232017E00023C2185278012A22D872
S3150000603000EB83004369D3B1114A934219D8D0F8D3
S315000060401431104A934207D9D0F854010E4B9842A6
S315000060508CBF2120002070BDB3F53D3F0BD8D0F892
S315000060605431B3F53E3F34BF00202120F3E72D2005
S31500006070F1E72820EFE72120EDE700BF68150100D2
S31500006080A0252600FFFF0524001B062411B10429C4
S3150000609000D07047014B1B68184700BF6C15010004
S315000060A007B500230193FFF7AFF901909DED017A43
S315000060B0DFED067AB4EEE77AF1EE10FA02D504487F
S315000060C0FFF722FC019803B05DF804FB9A9919408A
S315000060D0B409010084B010B52DED028BE4B068ACB4
S315000060E084E80F00CDA89DEDCE8AFFF771FF00284A
S315000060F04CD1334B9DF835431C7068A8FFF774FFED
S31500006100002843D1012C08BF9DF8A0019DF8342337
S3150000611068AB03EB4000012AB0F8F43003D1012B41
S315000061203BD02B2032E0013B9BB240F2FE318B424A
S31500006130F7D892BB012C30D9224B62934FF4C2722E
S31500006140BDF83433ADF884316CA968460FF078FC9D
S3150000615068AB0FCBFDF7D8F8FFF70EFFB0B9FFF726
S315000061609FFFDFED197AB4EEE78AF1EE10FA0146E9
S3150000617024D4DFED167AB4EEE78AF1EE10FA1DDCD0
S3150000618018EE100AFCF722F8FFF7F6FE64B0BDEC35
S31500006190028BBDE8104004B070470A4B62936CA9AD
S315000061A0BDF83433ADF884314FF4C27268460FF04F
S315000061B047FC68AB0FCBFDF747F9CDE72120E5E7B4
S315000061C0681501008D7020086666E63F66666640C3
S315000061D084B000B5E3B00DF5C87C8CE80F00C9A803
S315000061E0FFF7F6FED0B964A8FFF7FEFEB0B99DF83A
S315000061F02423BDF82433B2B99DF82523012A12D9E8
S315000062004FF4C27268A96846ADF884310FF018FCE5
S3150000621064AB0FCBFDF710FBFFF7AEFE63B05DF886
S3150000622004EB04B0704768A94FF4C2726846ADF833
S3150000623084310FF005FC64AB0FCBFDF799FCEBE75F
S31500006240034620B1044A106818B91360704722202B
S3150000625070470420704700BF6C15010008B503485D
S31500006260FDF750FEBDE80840FFF786BE003804245F
S3150000627007B5ADF8040001A8FFF7AAFE20B90198FA
S31500006280FCF7B6FAFFF778FE03B05DF804FB07B536
S31500006290ADF8040001A8FFF79BFE20B90198FDF7B1
S315000062A0E9F9FFF769FE03B05DF804FB07B5ADF841
S315000062B0040001A8FFF78CFE20B90198FDF78EFABD
S315000062C0FFF75AFE024B00221A6003B05DF804FB8A
S315000062D06C150100042902BF014B01221A70704798
S315000062E078150100437853B94269074B9A4208D89A
S315000062F0B0F8F430012B14BF2B200020704721206A
S3150000630070472820704700BFA025260084B000B53E
S31500006310E5B00DF5CC7C8CE80F009DF82C33012BF5
S3150000632034D19DF82D33013B0F2B2FD86046FFF754
S31500006330D9FF30BB164B62934FF4C272BDF82C33B3
S31500006340ADF884316AA968460FF07AFB66AB0FCBCD
S31500006350FFF7C0FEA8B9BDF82C33ADF884314FF471
S31500006360C2726AA968460FF06BFB66AB0FCBFFF7EC
S315000063702FFF30B90748FFF763FF10B9CB98FFF737
S3150000638077FF65B05DF804EB04B070472120F8E7AD
S315000063903D0A2740D572200884B000B5E3B00DF55C
S315000063A0C87C8CE80F0014238DF8E4316046104B4E
S315000063B08193FFF797FFA8B901460E4A0E48FDF7ED
S315000063C078FE0E4B4FF4C2721B88ADF8843168A973
S315000063D068460FF035FB64AB0FCBFFF7F9FE0038CC
S315000063E018BF012063B05DF804EB04B0704700BF2E
S315000063F000004C4200010000143A0424B8020000D8
S3150000640084B000B5E3B00DF5C87C8CE80F0060469B
S31500006410FFF768FF98B9FFF721FF80B917238DF8BA
S31500006420E431094B4FF4C2721B88ADF8843168A978
S3150000643068460FF005FB64AB0FCBFFF7C9FE63B0F0
S315000064405DF804EB04B07047B80200002DE9F04394
S31500006450504B2DED028B1B680646E3B0D3F8F030A7
S31500006460012109209847002E00F092804A4D4FF4F2
